:100000000C9434000C9451000C9451000C94510049
:100010000C9451000C9451000C9451000C9451001C
:100020000C9451000C9451000C9451000C949E01BE
:100030000C9451000C9451000C9451000C945100FC
:100040000C9451000C9451000C9451000C945100EC
:100050000C9451000C9451000C9451000C945100DC
:100060000C9451000C94510011241FBECFEFD8E026
:10007000DEBFCDBF11E0A0E0B1E0EAE3F6E102C0EF
:1000800005900D92AC32B107D9F711E0ACE2B1E0C6
:1000900001C01D92A633B107E1F70E94F0020C9453
:1000A0001B0B0C940000DF93CF9300D000D000D046
:1000B000CDB7DEB78E838E818F708D83EAE2F0E05C
:1000C0008FEF8083A5E2B0E0E5E2F0E080818D7FF4
:1000D0008C93EBE2F0E08D81882F90E0817090703E
:1000E00082959295907F9827807F9827282F8D81E1
:1000F000882F90E08270907082959295907F9827DB
:10010000807F9827282B8D81882F90E084709070B5
:1001100082959295907F9827807F9827282B8D81B4
:10012000882F90E08870907082959295907F9827A4
:10013000807F9827822B808382E08C838C818A95B4
:10014000F1F78C83A5E2B0E0E5E2F0E08081846025
:100150008C9382E08B838B818A95F1F78B83A5E268
:10016000B0E0E5E2F0E080818B7F8C938E818F7030
:100170008D83A5E2B0E0E5E2F0E080818D7F8C9395
:10018000EBE2F0E08D81882F90E081709070829595
:100190009295907F9827807F9827282F8D81882F90
:1001A00090E08270907082959295907F9827807FE2
:1001B0009827282B8D81882F90E0847090708295ED
:1001C0009295907F9827807F9827282B8D81882F64
:1001D00090E08870907082959295907F9827807FAC
:1001E0009827822B808382E08A838A818A95F1F71F
:1001F0008A83A5E2B0E0E5E2F0E0808184608C9340
:1002000082E0898389818A95F1F78983A5E2B0E04C
:10021000E5E2F0E080818B7F8C9326960FB6F89410
:10022000DEBF0FBECDBFCF91DF910895DF93CF9397
:1002300000D0CDB7DEB7EBE2F0E01082A5E2B0E08F
:10024000E5E2F0E080818E7F8C93EAE2F0E01082BC
:10025000A5E2B0E0E5E2F0E0808182608C9382E08C
:100260008A838A818A95F1F78A83A5E2B0E0E5E284
:10027000F0E0808184608C9382E0898389818A9513
:10028000F1F78983A5E2B0E0E5E2F0E080818B7FC1
:100290008C93E9E2F0E080810F900F90CF91DF9195
:1002A0000895DF93CF930F92CDB7DEB78983A5E290
:1002B000B0E0E5E2F0E0808181608C9389810E946A
:1002C00053000F90CF91DF910895DF93CF930F925A
:1002D000CDB7DEB78983A5E2B0E0E5E2F0E080814A
:1002E0008E7F8C9389810E9453000F90CF91DF9174
:1002F0000895DF93CF9300D00F92CDB7DEB78983F7
:100300007B836A83A5E2B0E0E5E2F0E08081816072
:100310008C938981882F90E08C35910521F48CE8AD
:100320000E94530003C089810E94530080E090E046
:100330000F900F900F90CF91DF9108951F920F9221
:100340000FB60F9211242F933F934F935F936F93A8
:100350007F938F939F93AF93BF93EF93FF93DF931D
:10036000CF93CDB7DEB780912C0190912D01A09154
:100370002E01B0912F010196A11DB11D80932C017A
:1003800090932D01A0932E01B0932F0100D0EDB7D3
:10039000FEB731968EE091E0918380830E948908B8
:1003A0000F900F9080EC0E94650120912C013091FC
:1003B0002D0140912E0150912F0100D000D000D08E
:1003C000EDB7FEB731968EE191E091838083228371
:1003D0003383448355830E9489088DB79EB7069660
:1003E0000FB6F8949EBF0FBE8DBFCF91DF91FF91E6
:1003F000EF91BF91AF919F918F917F916F915F919D
:100400004F913F912F910F900FBE0F901F90189515
:10041000DF93CF93CDB7DEB72E970FB6F894DEBF3C
:100420000FBECDBFE4E2F0E087E08083EAE2F0E0D7
:100430008FEF8083E5E2F0E088EF8083EBE2F0E08D
:10044000108210922C0110922D0110922E01109208
:100450002F01A3E4B0E0E3E4F0E0808183688C93B3
:10046000E4E8F0E011821082AFE6B0E0EFE6F0E001
:10047000808182608C93E8E8F0E08FE995ED9183CC
:100480008083A1E8B0E0E1E8F0E0808184608C93B3
:10049000A1E8B0E0E1E8F0E080818D7F8C93A1E8F5
:1004A000B0E0E1E8F0E080818E7F8C93A3E4B0E0DF
:1004B000E3E4F0E080818F778C938FE20E94650106
:1004C00083E00E9451018CE00E94650181E00E945E
:1004D000650180E090E0A0E2B1E48B879C87AD8766
:1004E000BE876B857C858D859E8520E030E04AE760
:1004F00055E40E94CE04DC01CB018F839887A98745
:10050000BA876F81788589859A8520E030E040E858
:100510005FE30E94280688232CF481E090E09E830C
:100520008D833FC06F81788589859A8520E03FEF74
:100530004FE757E40E94C80518164CF56B857C857B
:100540008D859E8520E030E040E251E40E94CE049B
:10055000DC01CB01BC01CD010E94F802DC01CB0122
:100560009E838D830FC080E991E09C838B838B8178
:100570009C810197F1F79C838B838D819E810197EC
:100580009E838D838D819E81009769F714C06F8152
:10059000788589859A850E94F802DC01CB019E83CB
:1005A0008D838D819E819A83898389819A81019728
:1005B000F1F79A83898386E00E94650183E00E94B7
:1005C000650180E091E090933301809332012E9693
:1005D0000FB6F894DEBF0FBECDBFCF91DF91089567
:1005E000DF93CF93CDB7DEB70E9408027894FFCF98
:1005F000EF92FF920F931F937B018C0120E030E07C
:1006000040E05FE40E94F80588238CF0C801B70140
:1006100020E030E040E05FE40E9470040E94580651
:100620009B01AC01205030404040504806C0C801FA
:10063000B7010E9458069B01AC01B901CA011F9184
:100640000F91FF90EF900895A0E0B0E0EAE2F3E0B0
:100650000C945208DC012B01FA019C91923008F4B1
:1006600039C1EB018881823008F433C1943069F4D8
:10067000843009F02FC111969C91119789819817A8
:1006800009F428C1A3E2B1E025C1843009F421C1F5
:100690008230A9F4923009F01DC19A01AD0188E0C1
:1006A000EA010990AE01E90109929E018150C1F76A
:1006B000E201898111969C918923818308C192303E
:1006C00009F407C112962D903C901397EB018A8193
:1006D0009B811496AD90BD90CD90DC901797EC80E7
:1006E000FD800E811F819101281B390BB90137FF55
:1006F00004C066277727621B730B603271050CF00C
:1007000061C0121613066CF537014801062E04C0AD
:1007100096948794779467940A94D2F721E030E016
:1007200040E050E004C0220F331F441F551F6A955C
:10073000D2F721503040404050402E213F214023ED
:100740005123211531054105510521F021E030E00B
:1007500040E050E079018A01E628F72808291929A4
:100760003CC0232BD1F1260E371E35014601062E43
:1007700004C096948794779467940A94D2F721E002
:1007800030E040E050E004C0220F331F441F551FEB
:100790006A95D2F721503040404050402A213B21F9
:1007A0004C215D21211531054105510521F021E044
:1007B00030E040E050E059016A01A628B728C82877
:1007C000D9280BC0821593052CF01C01AA24BB2448
:1007D000650103C0EE24FF24870111969C91D2018C
:1007E00011968C91981709F445C0992339F0A80106
:1007F00097012A193B094C095D0906C0A60195011C
:100800002E193F09400B510B57FD08C0118233824E
:10081000228224833583468357831DC081E08183F0
:100820003382228288279927DC01821B930BA40B39
:10083000B50B84839583A683B7830DC0220F331F26
:10084000441F551F248335834683578382819381B8
:100850000197938382832481358146815781DA0110
:10086000C9010197A109B1098F5F9F4FAF4FBF43E6
:1008700028F30BC0918333822282EA0CFB1C0C1DEF
:100880001D1DE482F5820683178383E08083248123
:1008900035814681578157FF1AC0C901AA2797FDA4
:1008A000A095BA2F81709070A070B0705695479542
:1008B00037952795822B932BA42BB52B8483958377
:1008C000A683B78382819381019693838283DF011C
:1008D00001C0D201CD01CDB7DEB7E2E10C946E08C4
:1008E000A0E2B0E0E6E7F4E00C945E0869837A8366
:1008F0008B839C832D833E834F835887E9E0EE2EC4
:10090000F12CEC0EFD1ECE010196B7010E9481076D
:100910008E010F5E1F4FCE010596B8010E94810720
:100920008A8991E089278A8BC701B801AE01475EA9
:100930005F4F0E9424030E94AC06A096E6E00C9450
:100940007A08A0E2B0E0E7EAF4E00C945E0869837C
:100950007A838B839C832D833E834F835887F9E072
:10096000EF2EF12CEC0EFD1ECE010196B7010E9478
:1009700081078E010F5E1F4FCE010596B8010E94C0
:100980008107C701B801AE01475E5F4F0E94240393
:100990000E94AC06A096E6E00C947A08A0E2B0E0D3
:1009A000E4EDF4E00C94520869837A838B839C8392
:1009B0002D833E834F835887CE010196BE01675F2A
:1009C0007F4F0E948107CE010596BE016F5E7F4F6B
:1009D0000E9481079985923088F089898230C8F019
:1009E000943019F4823051F404C0843029F49230E8
:1009F00081F483E291E0C6C0923049F420E09A8508
:100A00008A89981321E02A87CE010996BBC08230DB
:100A100049F420E09A858A89981321E02A8BCE0137
:100A20004196B0C02D843E844F8458886D887E885E
:100A30008F88988CEE24FF248701AA24BB246501AB
:100A400040E050E060E070E0E0E0F0E0C101817083
:100A50009070892BE9F0E60CF71C081D191D9A010E
:100A6000AB012A0D3B1D4C1D5D1D80E090E0A0E018
:100A7000B0E0E614F7040805190520F481E090E0E1
:100A8000A0E0B0E0BA01A901480F591F6A1F7B1FFF
:100A9000AA0CBB1CCC1CDD1C97FE08C081E090E0BA
:100AA000A0E0B0E0A82AB92ACA2ADB2A3196E032AF
:100AB000F10549F0660C771C881C991C56944794E4
:100AC00037942794C3CFFA85EA892B893C898B8593
:100AD0009C85280F391F2E5F3F4F17C0CA018170B8
:100AE0009070892B61F016950795F794E79480E054
:100AF00090E0A0E0B0E8E82AF92A0A2B1B2B7695B3
:100B00006795579547952F5F3F4F77FDE7CF0CC00F
:100B1000440F551F661F771F17FD4160EE0CFF1C29
:100B2000001F111F21503040403090E0590790E0E5
:100B3000690790E4790760F32B8F3C8FDB01CA01D2
:100B40008F779070A070B07080349105A105B105C9
:100B500061F447FD0AC0E114F1040105110529F013
:100B6000405C5F4F6F4F7F4F40781A8EFE1711F039
:100B700081E08A8F4D8F5E8F6F8F78A383E0898F9E
:100B8000CE0149960E94AC06A096E2E10C946E0854
:100B9000A8E1B0E0EEECF5E00C945E0869837A839E
:100BA0008B839C832D833E834F83588789E0E82E77
:100BB000F12CEC0EFD1ECE010196B7010E948107BB
:100BC0008E010F5E1F4FCE010596B8010E9481076E
:100BD0008985823040F08989823028F0C701B801C8
:100BE0000E94F90701C08FEF6896E6E00C947A083E
:100BF000A8E1B0E0EEEFF5E00C945E0869837A833B
:100C00008B839C832D833E834F83588789E0E82E16
:100C1000F12CEC0EFD1ECE010196B7010E9481075A
:100C20008E010F5E1F4FCE010596B8010E9481070D
:100C30008985823040F08989823028F0C701B80167
:100C40000E94F90701C08FEF6896E6E00C947A08DD
:100C5000A8E1B0E0EEE2F6E00C945E0869837A83E6
:100C60008B839C832D833E834F83588789E0E82EB6
:100C7000F12CEC0EFD1ECE010196B7010E948107FA
:100C80008E010F5E1F4FCE010596B8010E948107AD
:100C90008985823040F08989823028F0C701B80107
:100CA0000E94F90701C081E06896E6E00C947A089A
:100CB000ACE0B0E0EEE5F6E00C94620869837A837C
:100CC0008B839C83CE010196BE016B5F7F4F0E9498
:100CD00081078D81823061F1823050F1843021F4BE
:100CE0008E81882351F12EC02F81388537FD20C099
:100CF0006E812F3131051CF06623F9F023C08EE19F
:100D000090E0821B930B29853A854B855C8504C056
:100D100056954795379527958A95D2F76623B1F072
:100D200050954095309521953F4F4F4F5F4F0EC0E6
:100D300020E030E040E050E009C02FEF3FEF4FEF00
:100D40005FE704C020E030E040E050E8B901CA01AC
:100D50002C96E2E00C947E08DF92EF92FF920F93C4
:100D60001F93FC01E480F58006811781D18080818A
:100D7000823048F480E090E0A0E1B0E0E82AF92A6F
:100D80000A2B1B2BA5C0843009F49FC0823021F4AC
:100D9000EE24FF24870105C0E114F10401051105CB
:100DA00019F4E0E0F0E096C0628173819FEF623851
:100DB00079070CF05BC022E83FEF261B370B2A3186
:100DC00031052CF020E030E040E050E02AC0B801CE
:100DD000A701022E04C076956795579547950A940A
:100DE000D2F781E090E0A0E0B0E004C0880F991F46
:100DF000AA1FBB1F2A95D2F70197A109B1098E211D
:100E00009F21A023B1230097A105B10521F081E026
:100E100090E0A0E0B0E09A01AB01282B392B4A2BDF
:100E20005B2BDA01C9018F779070A070B0708034AD
:100E30009105A105B10539F427FF09C0205C3F4F9A
:100E40004F4F5F4F04C0215C3F4F4F4F5F4FE0E07B
:100E5000F0E02030A0E03A07A0E04A07A0E45A07FB
:100E600010F0E1E0F0E079018A0127C060387105F7
:100E700064F5FB01E158FF4FD801C7018F779070EF
:100E8000A070B07080349105A105B10539F4E7FE7A
:100E90000DC080E490E0A0E0B0E004C08FE390E0FB
:100EA000A0E0B0E0E80EF91E0A1F1B1F17FF05C0E7
:100EB00016950795F794E794319687E01695079570
:100EC000F794E7948A95D1F705C0EE24FF248701B3
:100ED000EFEFF0E06E2F679566276795902F9F776D
:100EE000D794DD24D7948E2F8695492F462B582FE3
:100EF0005D29B701CA011F910F91FF90EF90DF901C
:100F00000895FC01DB01408151812281622F6F77BE
:100F100070E0221F2227221F9381892F880F822BA6
:100F2000282F30E0991F9927991F11969C931197AC
:100F300021153105A9F5411551056105710511F41A
:100F400082E037C082E89FEF13969C938E931297AE
:100F50009A01AB0167E0220F331F441F551F6A95AA
:100F6000D1F783E08C930DC0220F331F441F551F10
:100F700012968D919C911397019713969C938E9343
:100F80001297203080E0380780E0480780E4580757
:100F900058F314962D933D934D935C9317970895B2
:100FA0002F3F310579F4411551056105710519F49B
:100FB00084E08C93089564FF03C081E08C9312C099
:100FC0001C9210C02F57304013963C932E931297CB
:100FD00083E08C9387E0440F551F661F771F8A9527
:100FE000D1F7706414964D935D936D937C9317972E
:100FF00008951F93DC01FB019C91923008F447C0D7
:101000008081823008F443C0943051F411961C91D1
:10101000843099F58181682F70E0611B71093FC0B0
:10102000843021F0923031F48230B9F1818188230B
:1010300089F12DC011961C9111978230F1F08181B8
:101040001817D9F412962D913C91139782819381B0
:101050008217930794F028173907BCF014968D91E6
:101060009D910D90BC91A02D2481358146815781A1
:10107000281739074A075B0718F4112341F00AC003
:1010800082179307A407B50740F4112319F061E014
:1010900070E005C06FEF7FEF02C060E070E0CB0151
:1010A0001F9108952F923F924F925F926F927F927D
:1010B0008F929F92AF92BF92CF92DF92EF92FF9268
:1010C0000F931F93CF93DF93CDB7DEB7CA1BDB0B14
:1010D0000FB6F894DEBF0FBECDBF09942A883988B9
:1010E00048885F846E847D848C849B84AA84B984C0
:1010F000C884DF80EE80FD800C811B81AA81B981CC
:10110000CE0FD11D0FB6F894DEBF0FBECDBFED01DF
:101110000895A0E0B0E0EFE8F8E00C946208FE016A
:101120003596619171918091320190913301AF01B7
:101130000E949E082096E2E00C947E08ABE0B0E0AE
:10114000E4EAF8E00C9452083C012B015A01FC013E
:1011500017821682838181FD03C06FEF7FEFC6C1C6
:101160009AE0892E1E010894211C311CF301238171
:10117000F20123FD859123FF81912F01882309F43A
:10118000B2C1853239F423FD859123FF81912F016E
:10119000853229F490E0B3010E94910AE7CF982F9D
:1011A000FF24EE249924FFE1FF15D0F09B3269F073
:1011B0009C3228F4903259F0933291F40EC09D3253
:1011C00049F0903369F441E024C052E0F52A84E00C
:1011D000F82A28C098E0F92A25C0E0E1FE2A22C0BA
:1011E000F7FC29C0892F80538A3070F4F6FE05C0C1
:1011F000989C902C1124980E15C0E89CE02C11248A
:10120000E80EF0E2FF2A0EC09E3229F4F6FC6BC114
:1012100040E4F42A07C09C3619F450E8F52A02C0CD
:10122000983649F4F20123FD959123FF91912F0106
:10123000992309F0B8CF892F8554833018F0805254
:10124000833038F444E050E0A40EB51E5FE35983C8
:101250000FC0933631F0933779F0933509F056C0CB
:1012600020C0F5018081898342E050E0A40EB51EC4
:10127000610101E010E012C0F501C080D180F6FCF0
:1012800003C06FEF7FEF02C0692D70E042E050E0D5
:10129000A40EB51EC6010E94860A8C015FE7F522E6
:1012A00014C0F501C080D180F6FC03C06FEF7FEF62
:1012B00002C0692D70E042E050E0A40EB51EC601E8
:1012C0000E947B0A8C0150E8F52AF3FE07C01AC081
:1012D00080E290E0B3010E94910AEA948E2D90E0A2
:1012E00008171907A8F30EC0F601F7FC8591F7FE61
:1012F00081916F0190E0B3010E94910AE110EA949C
:10130000015010400115110579F7EAC0943611F02B
:10131000993669F5F7FE08C0F501208131814281D7
:10132000538184E090E00AC0F501808191819C01A5
:10133000442737FD4095542F82E090E0A80EB91E57
:101340009FE6F92257FF09C05095409530952195A9
:101350003F4F4F4F5F4FE0E8FE2ACA01B901A1019C
:101360002AE030E00E94BD0AD82ED21840C095373E
:1013700029F41F2D1F7E2AE030E01DC01F2D197F8C
:101380009F3661F0903720F4983509F0ACC00FC05B
:10139000903739F0983709F0A6C004C028E030E053
:1013A0000AC0106114FD146020E130E004C014FD97
:1013B000166020E132E017FF08C0F50160817181FD
:1013C0008281938144E050E008C0F50180819181E1
:1013D000BC0180E090E042E050E0A40EB51EA10107
:1013E0000E94BD0AD82ED2188FE7F82EF122F6FE01
:1013F0000BC05EEFF522D91438F4F4FE07C0F2FCFE
:1014000005C08FEEF82202C01D2D01C0192DF4FE7B
:101410000DC0FE01ED0DF11D8081803319F499EEB0
:10142000F92208C01F5FF2FE05C003C08F2D867829
:1014300009F01F5F0F2DF3FC14C0F0FE0FC01E1546
:1014400010F09D2C0BC09D2C9E0C911A1E2D06C0D9
:1014500080E290E0B3010E94910A1F5F1E15C0F365
:1014600004C01E1510F4E11A01C0EE2404FF0FC0E1
:1014700080E390E0B3010E94910A02FF1DC001FDCC
:1014800003C088E790E00EC088E590E00BC0802F95
:10149000867891F001FF02C08BE201C080E2F7FC88
:1014A0008DE290E0B3010E94910A06C080E390E0D3
:1014B000B3010E94910A9A94D914C0F3DA94F1010D
:1014C000ED0DF11D808190E0B3010E94910ADD20B5
:1014D000A9F706C080E290E0B3010E94910AEA9465
:1014E000EE20C1F743CEF30166817781CB012B96C5
:1014F000E2E10C946E08FC0105906150704001100F
:10150000D8F7809590958E0F9F1F0895FC0161502C
:10151000704001900110D8F7809590958E0F9F1F15
:1015200008950F931F93CF93DF938C01EB018B8171
:1015300081FF1BC082FF0DC02E813F818C819D8168
:101540002817390764F4E881F9810193F983E88366
:1015500006C0E885F985802F0995892B31F48E81A5
:101560009F8101969F838E8302C00FEF1FEFC801FA
:10157000DF91CF911F910F910895FA01AA2728308A
:1015800051F1203181F1E8946F936E7F6E5F7F4F50
:101590008F4F9F4FAF4FB1E03ED0B4E03CD0670FCC
:1015A000781F891F9A1FA11D680F791F8A1F911D1F
:1015B000A11D6A0F711D811D911DA11D20D009F46F
:1015C00068943F912AE0269F11243019305D3193B1
:1015D000DEF6CF010895462F4770405D4193B3E09A
:1015E0000FD0C9F7F6CF462F4F70405D4A3318F041
:1015F000495D31FD4052419302D0A9F7EACFB4E0F2
:10160000A6959795879577956795BA95C9F70097A9
:101610006105710508959B01AC010A2E069457954A
:10162000479537952795BA95C9F7620F731F841FA1
:0A163000951FA01D0895F894FFCF48
:10163A000000000200000000790100000000456C73
:10164A006170736564205365636F6E6473003D2037
:0C165A00256400000000000000000000FB
:00000001FF
